{
  "_format": "hh-sol-artifact-1",
  "contractName": "RainbowKitNFT",
  "sourceName": "contracts/RainbowKitNFT.sol",
  "abi": [
    {
      "inputs": [],
      "stateMutability": "nonpayable",
      "type": "constructor"
    },
    {
      "anonymous": false,
      "inputs": [
        {
          "indexed": true,
          "internalType": "address",
          "name": "account",
          "type": "address"
        },
        {
          "indexed": true,
          "internalType": "address",
          "name": "operator",
          "type": "address"
        },
        {
          "indexed": false,
          "internalType": "bool",
          "name": "approved",
          "type": "bool"
        }
      ],
      "name": "ApprovalForAll",
      "type": "event"
    },
    {
      "anonymous": false,
      "inputs": [
        {
          "indexed": true,
          "internalType": "address",
          "name": "previousOwner",
          "type": "address"
        },
        {
          "indexed": true,
          "internalType": "address",
          "name": "newOwner",
          "type": "address"
        }
      ],
      "name": "OwnershipTransferred",
      "type": "event"
    },
    {
      "anonymous": false,
      "inputs": [
        {
          "indexed": true,
          "internalType": "address",
          "name": "operator",
          "type": "address"
        },
        {
          "indexed": true,
          "internalType": "address",
          "name": "from",
          "type": "address"
        },
        {
          "indexed": true,
          "internalType": "address",
          "name": "to",
          "type": "address"
        },
        {
          "indexed": false,
          "internalType": "uint256[]",
          "name": "ids",
          "type": "uint256[]"
        },
        {
          "indexed": false,
          "internalType": "uint256[]",
          "name": "values",
          "type": "uint256[]"
        }
      ],
      "name": "TransferBatch",
      "type": "event"
    },
    {
      "anonymous": false,
      "inputs": [
        {
          "indexed": true,
          "internalType": "address",
          "name": "operator",
          "type": "address"
        },
        {
          "indexed": true,
          "internalType": "address",
          "name": "from",
          "type": "address"
        },
        {
          "indexed": true,
          "internalType": "address",
          "name": "to",
          "type": "address"
        },
        {
          "indexed": false,
          "internalType": "uint256",
          "name": "id",
          "type": "uint256"
        },
        {
          "indexed": false,
          "internalType": "uint256",
          "name": "value",
          "type": "uint256"
        }
      ],
      "name": "TransferSingle",
      "type": "event"
    },
    {
      "anonymous": false,
      "inputs": [
        {
          "indexed": false,
          "internalType": "string",
          "name": "value",
          "type": "string"
        },
        {
          "indexed": true,
          "internalType": "uint256",
          "name": "id",
          "type": "uint256"
        }
      ],
      "name": "URI",
      "type": "event"
    },
    {
      "inputs": [
        {
          "internalType": "address",
          "name": "account",
          "type": "address"
        },
        {
          "internalType": "uint256",
          "name": "id",
          "type": "uint256"
        }
      ],
      "name": "balanceOf",
      "outputs": [
        {
          "internalType": "uint256",
          "name": "",
          "type": "uint256"
        }
      ],
      "stateMutability": "view",
      "type": "function"
    },
    {
      "inputs": [
        {
          "internalType": "address[]",
          "name": "accounts",
          "type": "address[]"
        },
        {
          "internalType": "uint256[]",
          "name": "ids",
          "type": "uint256[]"
        }
      ],
      "name": "balanceOfBatch",
      "outputs": [
        {
          "internalType": "uint256[]",
          "name": "",
          "type": "uint256[]"
        }
      ],
      "stateMutability": "view",
      "type": "function"
    },
    {
      "inputs": [
        {
          "internalType": "address",
          "name": "account",
          "type": "address"
        },
        {
          "internalType": "address",
          "name": "operator",
          "type": "address"
        }
      ],
      "name": "isApprovedForAll",
      "outputs": [
        {
          "internalType": "bool",
          "name": "",
          "type": "bool"
        }
      ],
      "stateMutability": "view",
      "type": "function"
    },
    {
      "inputs": [],
      "name": "mint",
      "outputs": [],
      "stateMutability": "nonpayable",
      "type": "function"
    },
    {
      "inputs": [],
      "name": "owner",
      "outputs": [
        {
          "internalType": "address",
          "name": "",
          "type": "address"
        }
      ],
      "stateMutability": "view",
      "type": "function"
    },
    {
      "inputs": [],
      "name": "renounceOwnership",
      "outputs": [],
      "stateMutability": "nonpayable",
      "type": "function"
    },
    {
      "inputs": [
        {
          "internalType": "address",
          "name": "from",
          "type": "address"
        },
        {
          "internalType": "address",
          "name": "to",
          "type": "address"
        },
        {
          "internalType": "uint256[]",
          "name": "ids",
          "type": "uint256[]"
        },
        {
          "internalType": "uint256[]",
          "name": "amounts",
          "type": "uint256[]"
        },
        {
          "internalType": "bytes",
          "name": "data",
          "type": "bytes"
        }
      ],
      "name": "safeBatchTransferFrom",
      "outputs": [],
      "stateMutability": "nonpayable",
      "type": "function"
    },
    {
      "inputs": [
        {
          "internalType": "address",
          "name": "from",
          "type": "address"
        },
        {
          "internalType": "address",
          "name": "to",
          "type": "address"
        },
        {
          "internalType": "uint256",
          "name": "id",
          "type": "uint256"
        },
        {
          "internalType": "uint256",
          "name": "amount",
          "type": "uint256"
        },
        {
          "internalType": "bytes",
          "name": "data",
          "type": "bytes"
        }
      ],
      "name": "safeTransferFrom",
      "outputs": [],
      "stateMutability": "nonpayable",
      "type": "function"
    },
    {
      "inputs": [
        {
          "internalType": "address",
          "name": "operator",
          "type": "address"
        },
        {
          "internalType": "bool",
          "name": "approved",
          "type": "bool"
        }
      ],
      "name": "setApprovalForAll",
      "outputs": [],
      "stateMutability": "nonpayable",
      "type": "function"
    },
    {
      "inputs": [
        {
          "internalType": "bytes4",
          "name": "interfaceId",
          "type": "bytes4"
        }
      ],
      "name": "supportsInterface",
      "outputs": [
        {
          "internalType": "bool",
          "name": "",
          "type": "bool"
        }
      ],
      "stateMutability": "view",
      "type": "function"
    },
    {
      "inputs": [],
      "name": "totalSupply",
      "outputs": [
        {
          "internalType": "uint256",
          "name": "",
          "type": "uint256"
        }
      ],
      "stateMutability": "view",
      "type": "function"
    },
    {
      "inputs": [
        {
          "internalType": "address",
          "name": "newOwner",
          "type": "address"
        }
      ],
      "name": "transferOwnership",
      "outputs": [],
      "stateMutability": "nonpayable",
      "type": "function"
    },
    {
      "inputs": [
        {
          "internalType": "uint256",
          "name": "",
          "type": "uint256"
        }
      ],
      "name": "uri",
      "outputs": [
        {
          "internalType": "string",
          "name": "",
          "type": "string"
        }
      ],
      "stateMutability": "view",
      "type": "function"
    }
  ],
  "bytecode": "0x60806040523480156200001157600080fd5b5060405180606001604052806034815260200162002f33603491396200003d816200006460201b60201c565b506200005e620000526200008060201b60201c565b6200008860201b60201c565b62000263565b80600290805190602001906200007c9291906200014e565b5050565b600033905090565b6000600360009054906101000a900473ffffffffffffffffffffffffffffffffffffffff16905081600360006101000a81548173ffffffffffffffffffffffffffffffffffffffff021916908373ffffffffffffffffffffffffffffffffffffffff1602179055508173ffffffffffffffffffffffffffffffffffffffff168173ffffffffffffffffffffffffffffffffffffffff167f8be0079c531659141344cd1fd0a4f28419497f9722a3daafe3b4186f6b6457e060405160405180910390a35050565b8280546200015c906200022d565b90600052602060002090601f016020900481019282620001805760008555620001cc565b82601f106200019b57805160ff1916838001178555620001cc565b82800160010185558215620001cc579182015b82811115620001cb578251825591602001919060010190620001ae565b5b509050620001db9190620001df565b5090565b5b80821115620001fa576000816000905550600101620001e0565b5090565b7f4e487b7100000000000000000000000000000000000000000000000000000000600052602260045260246000fd5b600060028204905060018216806200024657607f821691505b602082108114156200025d576200025c620001fe565b5b50919050565b612cc080620002736000396000f3fe608060405234801561001057600080fd5b50600436106100ce5760003560e01c80634e1273f41161008c578063a22cb46511610066578063a22cb465146101ff578063e985e9c51461021b578063f242432a1461024b578063f2fde38b14610267576100ce565b80634e1273f4146101a7578063715018a6146101d75780638da5cb5b146101e1576100ce565b8062fdd58e146100d357806301ffc9a7146101035780630e89341c146101335780631249c58b1461016357806318160ddd1461016d5780632eb2c2d61461018b575b600080fd5b6100ed60048036038101906100e891906118dc565b610283565b6040516100fa919061192b565b60405180910390f35b61011d6004803603810190610118919061199e565b61034c565b60405161012a91906119e6565b60405180910390f35b61014d60048036038101906101489190611a01565b61042e565b60405161015a9190611ac7565b60405180910390f35b61016b6104c2565b005b6101756104f0565b604051610182919061192b565b60405180910390f35b6101a560048036038101906101a09190611ce6565b6104f6565b005b6101c160048036038101906101bc9190611e78565b610597565b6040516101ce9190611fae565b60405180910390f35b6101df6106b0565b005b6101e9610738565b6040516101f69190611fdf565b60405180910390f35b61021960048036038101906102149190612026565b610762565b005b61023560048036038101906102309190612066565b610778565b60405161024291906119e6565b60405180910390f35b610265600480360381019061026091906120a6565b61080c565b005b610281600480360381019061027c919061213d565b6108ad565b005b60008073ffffffffffffffffffffffffffffffffffffffff168373ffffffffffffffffffffffffffffffffffffffff1614156102f4576040517f08c379a00000000000000000000000000000000000000000000000000000000081526004016102eb906121dc565b60405180910390fd5b60008083815260200190815260200160002060008473ffffffffffffffffffffffffffffffffffffffff1673ffffffffffffffffffffffffffffffffffffffff16815260200190815260200160002054905092915050565b60007fd9b67a26000000000000000000000000000000000000000000000000000000007bffffffffffffffffffffffffffffffffffffffffffffffffffffffff1916827bffffffffffffffffffffffffffffffffffffffffffffffffffffffff1916148061041757507f0e89341c000000000000000000000000000000000000000000000000000000007bffffffffffffffffffffffffffffffffffffffffffffffffffffffff1916827bffffffffffffffffffffffffffffffffffffffffffffffffffffffff1916145b806104275750610426826109a5565b5b9050919050565b60606002805461043d9061222b565b80601f01602080910402602001604051908101604052809291908181526020018280546104699061222b565b80156104b65780601f1061048b576101008083540402835291602001916104b6565b820191906000526020600020905b81548152906001019060200180831161049957829003601f168201915b50505050509050919050565b600460008154600101919050819055506104ee3360018060405180602001604052806000815250610a0f565b565b60045481565b6104fe610bc0565b73ffffffffffffffffffffffffffffffffffffffff168573ffffffffffffffffffffffffffffffffffffffff16148061054457506105438561053e610bc0565b610778565b5b610583576040517f08c379a000000000000000000000000000000000000000000000000000000000815260040161057a906122cf565b60405180910390fd5b6105908585858585610bc8565b5050505050565b606081518351146105dd576040517f08c379a00000000000000000000000000000000000000000000000000000000081526004016105d490612361565b60405180910390fd5b6000835167ffffffffffffffff8111156105fa576105f9611aee565b5b6040519080825280602002602001820160405280156106285781602001602082028036833780820191505090505b50905060005b84518110156106a55761067585828151811061064d5761064c612381565b5b602002602001015185838151811061066857610667612381565b5b6020026020010151610283565b82828151811061068857610687612381565b5b6020026020010181815250508061069e906123df565b905061062e565b508091505092915050565b6106b8610bc0565b73ffffffffffffffffffffffffffffffffffffffff166106d6610738565b73ffffffffffffffffffffffffffffffffffffffff161461072c576040517f08c379a000000000000000000000000000000000000000000000000000000000815260040161072390612474565b60405180910390fd5b6107366000610eea565b565b6000600360009054906101000a900473ffffffffffffffffffffffffffffffffffffffff16905090565b61077461076d610bc0565b8383610fb0565b5050565b6000600160008473ffffffffffffffffffffffffffffffffffffffff1673ffffffffffffffffffffffffffffffffffffffff16815260200190815260200160002060008373ffffffffffffffffffffffffffffffffffffffff1673ffffffffffffffffffffffffffffffffffffffff16815260200190815260200160002060009054906101000a900460ff16905092915050565b610814610bc0565b73ffffffffffffffffffffffffffffffffffffffff168573ffffffffffffffffffffffffffffffffffffffff16148061085a575061085985610854610bc0565b610778565b5b610899576040517f08c379a000000000000000000000000000000000000000000000000000000000815260040161089090612506565b60405180910390fd5b6108a6858585858561111d565b5050505050565b6108b5610bc0565b73ffffffffffffffffffffffffffffffffffffffff166108d3610738565b73ffffffffffffffffffffffffffffffffffffffff1614610929576040517f08c379a000000000000000000000000000000000000000000000000000000000815260040161092090612474565b60405180910390fd5b600073ffffffffffffffffffffffffffffffffffffffff168173ffffffffffffffffffffffffffffffffffffffff161415610999576040517f08c379a000000000000000000000000000000000000000000000000000000000815260040161099090612598565b60405180910390fd5b6109a281610eea565b50565b60007f01ffc9a7000000000000000000000000000000000000000000000000000000007bffffffffffffffffffffffffffffffffffffffffffffffffffffffff1916827bffffffffffffffffffffffffffffffffffffffffffffffffffffffff1916149050919050565b600073ffffffffffffffffffffffffffffffffffffffff168473ffffffffffffffffffffffffffffffffffffffff161415610a7f576040517f08c379a0000000000000000000000000000000000000000000000000000000008152600401610a769061262a565b60405180910390fd5b6000610a89610bc0565b90506000610a96856113b9565b90506000610aa3856113b9565b9050610ab483600089858589611433565b8460008088815260200190815260200160002060008973ffffffffffffffffffffffffffffffffffffffff1673ffffffffffffffffffffffffffffffffffffffff1681526020019081526020016000206000828254610b13919061264a565b925050819055508673ffffffffffffffffffffffffffffffffffffffff16600073ffffffffffffffffffffffffffffffffffffffff168473ffffffffffffffffffffffffffffffffffffffff167fc3d58168c5ae7397731d063d5bbf3d657854427343f4c083240f7aacaa2d0f628989604051610b919291906126a0565b60405180910390a4610ba88360008985858961143b565b610bb783600089898989611443565b50505050505050565b600033905090565b8151835114610c0c576040517f08c379a0000000000000000000000000000000000000000000000000000000008152600401610c039061273b565b60405180910390fd5b600073ffffffffffffffffffffffffffffffffffffffff168473ffffffffffffffffffffffffffffffffffffffff161415610c7c576040517f08c379a0000000000000000000000000000000000000000000000000000000008152600401610c73906127cd565b60405180910390fd5b6000610c86610bc0565b9050610c96818787878787611433565b60005b8451811015610e47576000858281518110610cb757610cb6612381565b5b602002602001015190506000858381518110610cd657610cd5612381565b5b60200260200101519050600080600084815260200190815260200160002060008b73ffffffffffffffffffffffffffffffffffffffff1673ffffffffffffffffffffffffffffffffffffffff16815260200190815260200160002054905081811015610d77576040517f08c379a0000000000000000000000000000000000000000000000000000000008152600401610d6e9061285f565b60405180910390fd5b81810360008085815260200190815260200160002060008c73ffffffffffffffffffffffffffffffffffffffff1673ffffffffffffffffffffffffffffffffffffffff168152602001908152602001600020819055508160008085815260200190815260200160002060008b73ffffffffffffffffffffffffffffffffffffffff1673ffffffffffffffffffffffffffffffffffffffff1681526020019081526020016000206000828254610e2c919061264a565b9250508190555050505080610e40906123df565b9050610c99565b508473ffffffffffffffffffffffffffffffffffffffff168673ffffffffffffffffffffffffffffffffffffffff168273ffffffffffffffffffffffffffffffffffffffff167f4a39dc06d4c0dbc64b70af90fd698a233a518aa5d07e595d983b8c0526c8f7fb8787604051610ebe92919061287f565b60405180910390a4610ed481878787878761143b565b610ee281878787878761162a565b505050505050565b6000600360009054906101000a900473ffffffffffffffffffffffffffffffffffffffff16905081600360006101000a81548173ffffffffffffffffffffffffffffffffffffffff021916908373ffffffffffffffffffffffffffffffffffffffff1602179055508173ffffffffffffffffffffffffffffffffffffffff168173ffffffffffffffffffffffffffffffffffffffff167f8be0079c531659141344cd1fd0a4f28419497f9722a3daafe3b4186f6b6457e060405160405180910390a35050565b8173ffffffffffffffffffffffffffffffffffffffff168373ffffffffffffffffffffffffffffffffffffffff16141561101f576040517f08c379a000000000000000000000000000000000000000000000000000000000815260040161101690612928565b60405180910390fd5b80600160008573ffffffffffffffffffffffffffffffffffffffff1673ffffffffffffffffffffffffffffffffffffffff16815260200190815260200160002060008473ffffffffffffffffffffffffffffffffffffffff1673ffffffffffffffffffffffffffffffffffffffff16815260200190815260200160002060006101000a81548160ff0219169083151502179055508173ffffffffffffffffffffffffffffffffffffffff168373ffffffffffffffffffffffffffffffffffffffff167f17307eab39ab6107e8899845ad3d59bd9653f200f220920489ca2b5937696c318360405161111091906119e6565b60405180910390a3505050565b600073ffffffffffffffffffffffffffffffffffffffff168473ffffffffffffffffffffffffffffffffffffffff16141561118d576040517f08c379a0000000000000000000000000000000000000000000000000000000008152600401611184906127cd565b60405180910390fd5b6000611197610bc0565b905060006111a4856113b9565b905060006111b1856113b9565b90506111c1838989858589611433565b600080600088815260200190815260200160002060008a73ffffffffffffffffffffffffffffffffffffffff1673ffffffffffffffffffffffffffffffffffffffff16815260200190815260200160002054905085811015611258576040517f08c379a000000000000000000000000000000000000000000000000000000000815260040161124f9061285f565b60405180910390fd5b85810360008089815260200190815260200160002060008b73ffffffffffffffffffffffffffffffffffffffff1673ffffffffffffffffffffffffffffffffffffffff168152602001908152602001600020819055508560008089815260200190815260200160002060008a73ffffffffffffffffffffffffffffffffffffffff1673ffffffffffffffffffffffffffffffffffffffff168152602001908152602001600020600082825461130d919061264a565b925050819055508773ffffffffffffffffffffffffffffffffffffffff168973ffffffffffffffffffffffffffffffffffffffff168573ffffffffffffffffffffffffffffffffffffffff167fc3d58168c5ae7397731d063d5bbf3d657854427343f4c083240f7aacaa2d0f628a8a60405161138a9291906126a0565b60405180910390a46113a0848a8a86868a61143b565b6113ae848a8a8a8a8a611443565b505050505050505050565b60606000600167ffffffffffffffff8111156113d8576113d7611aee565b5b6040519080825280602002602001820160405280156114065781602001602082028036833780820191505090505b509050828160008151811061141e5761141d612381565b5b60200260200101818152505080915050919050565b505050505050565b505050505050565b6114628473ffffffffffffffffffffffffffffffffffffffff16611811565b15611622578373ffffffffffffffffffffffffffffffffffffffff1663f23a6e6187878686866040518663ffffffff1660e01b81526004016114a895949392919061299d565b602060405180830381600087803b1580156114c257600080fd5b505af19250505080156114f357506040513d601f19601f820116820180604052508101906114f09190612a0c565b60015b611599576114ff612a46565b806308c379a0141561155c5750611514612a68565b8061151f575061155e565b806040517f08c379a00000000000000000000000000000000000000000000000000000000081526004016115539190611ac7565b60405180910390fd5b505b6040517f08c379a000000000000000000000000000000000000000000000000000000000815260040161159090612b70565b60405180910390fd5b63f23a6e6160e01b7bffffffffffffffffffffffffffffffffffffffffffffffffffffffff1916817bffffffffffffffffffffffffffffffffffffffffffffffffffffffff191614611620576040517f08c379a000000000000000000000000000000000000000000000000000000000815260040161161790612c02565b60405180910390fd5b505b505050505050565b6116498473ffffffffffffffffffffffffffffffffffffffff16611811565b15611809578373ffffffffffffffffffffffffffffffffffffffff1663bc197c8187878686866040518663ffffffff1660e01b815260040161168f959493929190612c22565b602060405180830381600087803b1580156116a957600080fd5b505af19250505080156116da57506040513d601f19601f820116820180604052508101906116d79190612a0c565b60015b611780576116e6612a46565b806308c379a0141561174357506116fb612a68565b806117065750611745565b806040517f08c379a000000000000000000000000000000000000000000000000000000000815260040161173a9190611ac7565b60405180910390fd5b505b6040517f08c379a000000000000000000000000000000000000000000000000000000000815260040161177790612b70565b60405180910390fd5b63bc197c8160e01b7bffffffffffffffffffffffffffffffffffffffffffffffffffffffff1916817bffffffffffffffffffffffffffffffffffffffffffffffffffffffff191614611807576040517f08c379a00000000000000000000000000000000000000000000000000000000081526004016117fe90612c02565b60405180910390fd5b505b505050505050565b6000808273ffffffffffffffffffffffffffffffffffffffff163b119050919050565b6000604051905090565b600080fd5b600080fd5b600073ffffffffffffffffffffffffffffffffffffffff82169050919050565b600061187382611848565b9050919050565b61188381611868565b811461188e57600080fd5b50565b6000813590506118a08161187a565b92915050565b6000819050919050565b6118b9816118a6565b81146118c457600080fd5b50565b6000813590506118d6816118b0565b92915050565b600080604083850312156118f3576118f261183e565b5b600061190185828601611891565b9250506020611912858286016118c7565b9150509250929050565b611925816118a6565b82525050565b6000602082019050611940600083018461191c565b92915050565b60007fffffffff0000000000000000000000000000000000000000000000000000000082169050919050565b61197b81611946565b811461198657600080fd5b50565b60008135905061199881611972565b92915050565b6000602082840312156119b4576119b361183e565b5b60006119c284828501611989565b91505092915050565b60008115159050919050565b6119e0816119cb565b82525050565b60006020820190506119fb60008301846119d7565b92915050565b600060208284031215611a1757611a1661183e565b5b6000611a25848285016118c7565b91505092915050565b600081519050919050565b600082825260208201905092915050565b60005b83811015611a68578082015181840152602081019050611a4d565b83811115611a77576000848401525b50505050565b6000601f19601f8301169050919050565b6000611a9982611a2e565b611aa38185611a39565b9350611ab3818560208601611a4a565b611abc81611a7d565b840191505092915050565b60006020820190508181036000830152611ae18184611a8e565b905092915050565b600080fd5b7f4e487b7100000000000000000000000000000000000000000000000000000000600052604160045260246000fd5b611b2682611a7d565b810181811067ffffffffffffffff82111715611b4557611b44611aee565b5b80604052505050565b6000611b58611834565b9050611b648282611b1d565b919050565b600067ffffffffffffffff821115611b8457611b83611aee565b5b602082029050602081019050919050565b600080fd5b6000611bad611ba884611b69565b611b4e565b90508083825260208201905060208402830185811115611bd057611bcf611b95565b5b835b81811015611bf95780611be588826118c7565b845260208401935050602081019050611bd2565b5050509392505050565b600082601f830112611c1857611c17611ae9565b5b8135611c28848260208601611b9a565b91505092915050565b600080fd5b600067ffffffffffffffff821115611c5157611c50611aee565b5b611c5a82611a7d565b9050602081019050919050565b82818337600083830152505050565b6000611c89611c8484611c36565b611b4e565b905082815260208101848484011115611ca557611ca4611c31565b5b611cb0848285611c67565b509392505050565b600082601f830112611ccd57611ccc611ae9565b5b8135611cdd848260208601611c76565b91505092915050565b600080600080600060a08688031215611d0257611d0161183e565b5b6000611d1088828901611891565b9550506020611d2188828901611891565b945050604086013567ffffffffffffffff811115611d4257611d41611843565b5b611d4e88828901611c03565b935050606086013567ffffffffffffffff811115611d6f57611d6e611843565b5b611d7b88828901611c03565b925050608086013567ffffffffffffffff811115611d9c57611d9b611843565b5b611da888828901611cb8565b9150509295509295909350565b600067ffffffffffffffff821115611dd057611dcf611aee565b5b602082029050602081019050919050565b6000611df4611def84611db5565b611b4e565b90508083825260208201905060208402830185811115611e1757611e16611b95565b5b835b81811015611e405780611e2c8882611891565b845260208401935050602081019050611e19565b5050509392505050565b600082601f830112611e5f57611e5e611ae9565b5b8135611e6f848260208601611de1565b91505092915050565b60008060408385031215611e8f57611e8e61183e565b5b600083013567ffffffffffffffff811115611ead57611eac611843565b5b611eb985828601611e4a565b925050602083013567ffffffffffffffff811115611eda57611ed9611843565b5b611ee685828601611c03565b9150509250929050565b600081519050919050565b600082825260208201905092915050565b6000819050602082019050919050565b611f25816118a6565b82525050565b6000611f378383611f1c565b60208301905092915050565b6000602082019050919050565b6000611f5b82611ef0565b611f658185611efb565b9350611f7083611f0c565b8060005b83811015611fa1578151611f888882611f2b565b9750611f9383611f43565b925050600181019050611f74565b5085935050505092915050565b60006020820190508181036000830152611fc88184611f50565b905092915050565b611fd981611868565b82525050565b6000602082019050611ff46000830184611fd0565b92915050565b612003816119cb565b811461200e57600080fd5b50565b60008135905061202081611ffa565b92915050565b6000806040838503121561203d5761203c61183e565b5b600061204b85828601611891565b925050602061205c85828601612011565b9150509250929050565b6000806040838503121561207d5761207c61183e565b5b600061208b85828601611891565b925050602061209c85828601611891565b9150509250929050565b600080600080600060a086880312156120c2576120c161183e565b5b60006120d088828901611891565b95505060206120e188828901611891565b94505060406120f2888289016118c7565b9350506060612103888289016118c7565b925050608086013567ffffffffffffffff81111561212457612123611843565b5b61213088828901611cb8565b9150509295509295909350565b6000602082840312156121535761215261183e565b5b600061216184828501611891565b91505092915050565b7f455243313135353a2062616c616e636520717565727920666f7220746865207a60008201527f65726f2061646472657373000000000000000000000000000000000000000000602082015250565b60006121c6602b83611a39565b91506121d18261216a565b604082019050919050565b600060208201905081810360008301526121f5816121b9565b9050919050565b7f4e487b7100000000000000000000000000000000000000000000000000000000600052602260045260246000fd5b6000600282049050600182168061224357607f821691505b60208210811415612257576122566121fc565b5b50919050565b7f455243313135353a207472616e736665722063616c6c6572206973206e6f742060008201527f6f776e6572206e6f7220617070726f7665640000000000000000000000000000602082015250565b60006122b9603283611a39565b91506122c48261225d565b604082019050919050565b600060208201905081810360008301526122e8816122ac565b9050919050565b7f455243313135353a206163636f756e747320616e6420696473206c656e67746860008201527f206d69736d617463680000000000000000000000000000000000000000000000602082015250565b600061234b602983611a39565b9150612356826122ef565b604082019050919050565b6000602082019050818103600083015261237a8161233e565b9050919050565b7f4e487b7100000000000000000000000000000000000000000000000000000000600052603260045260246000fd5b7f4e487b7100000000000000000000000000000000000000000000000000000000600052601160045260246000fd5b60006123ea826118a6565b91507fffffffffffffffffffffffffffffffffffffffffffffffffffffffffffffffff82141561241d5761241c6123b0565b5b600182019050919050565b7f4f776e61626c653a2063616c6c6572206973206e6f7420746865206f776e6572600082015250565b600061245e602083611a39565b915061246982612428565b602082019050919050565b6000602082019050818103600083015261248d81612451565b9050919050565b7f455243313135353a2063616c6c6572206973206e6f74206f776e6572206e6f7260008201527f20617070726f7665640000000000000000000000000000000000000000000000602082015250565b60006124f0602983611a39565b91506124fb82612494565b604082019050919050565b6000602082019050818103600083015261251f816124e3565b9050919050565b7f4f776e61626c653a206e6577206f776e657220697320746865207a65726f206160008201527f6464726573730000000000000000000000000000000000000000000000000000602082015250565b6000612582602683611a39565b915061258d82612526565b604082019050919050565b600060208201905081810360008301526125b181612575565b9050919050565b7f455243313135353a206d696e7420746f20746865207a65726f2061646472657360008201527f7300000000000000000000000000000000000000000000000000000000000000602082015250565b6000612614602183611a39565b915061261f826125b8565b604082019050919050565b6000602082019050818103600083015261264381612607565b9050919050565b6000612655826118a6565b9150612660836118a6565b9250827fffffffffffffffffffffffffffffffffffffffffffffffffffffffffffffffff03821115612695576126946123b0565b5b828201905092915050565b60006040820190506126b5600083018561191c565b6126c2602083018461191c565b9392505050565b7f455243313135353a2069647320616e6420616d6f756e7473206c656e6774682060008201527f6d69736d61746368000000000000000000000000000000000000000000000000602082015250565b6000612725602883611a39565b9150612730826126c9565b604082019050919050565b6000602082019050818103600083015261275481612718565b9050919050565b7f455243313135353a207472616e7366657220746f20746865207a65726f20616460008201527f6472657373000000000000000000000000000000000000000000000000000000602082015250565b60006127b7602583611a39565b91506127c28261275b565b604082019050919050565b600060208201905081810360008301526127e6816127aa565b9050919050565b7f455243313135353a20696e73756666696369656e742062616c616e636520666f60008201527f72207472616e7366657200000000000000000000000000000000000000000000602082015250565b6000612849602a83611a39565b9150612854826127ed565b604082019050919050565b600060208201905081810360008301526128788161283c565b9050919050565b600060408201905081810360008301526128998185611f50565b905081810360208301526128ad8184611f50565b90509392505050565b7f455243313135353a2073657474696e6720617070726f76616c2073746174757360008201527f20666f722073656c660000000000000000000000000000000000000000000000602082015250565b6000612912602983611a39565b915061291d826128b6565b604082019050919050565b6000602082019050818103600083015261294181612905565b9050919050565b600081519050919050565b600082825260208201905092915050565b600061296f82612948565b6129798185612953565b9350612989818560208601611a4a565b61299281611a7d565b840191505092915050565b600060a0820190506129b26000830188611fd0565b6129bf6020830187611fd0565b6129cc604083018661191c565b6129d9606083018561191c565b81810360808301526129eb8184612964565b90509695505050505050565b600081519050612a0681611972565b92915050565b600060208284031215612a2257612a2161183e565b5b6000612a30848285016129f7565b91505092915050565b60008160e01c9050919050565b600060033d1115612a655760046000803e612a62600051612a39565b90505b90565b600060443d1015612a7857612afb565b612a80611834565b60043d036004823e80513d602482011167ffffffffffffffff82111715612aa8575050612afb565b808201805167ffffffffffffffff811115612ac65750505050612afb565b80602083010160043d038501811115612ae3575050505050612afb565b612af282602001850186611b1d565b82955050505050505b90565b7f455243313135353a207472616e7366657220746f206e6f6e204552433131353560008201527f526563656976657220696d706c656d656e746572000000000000000000000000602082015250565b6000612b5a603483611a39565b9150612b6582612afe565b604082019050919050565b60006020820190508181036000830152612b8981612b4d565b9050919050565b7f455243313135353a204552433131353552656365697665722072656a6563746560008201527f6420746f6b656e73000000000000000000000000000000000000000000000000602082015250565b6000612bec602883611a39565b9150612bf782612b90565b604082019050919050565b60006020820190508181036000830152612c1b81612bdf565b9050919050565b600060a082019050612c376000830188611fd0565b612c446020830187611fd0565b8181036040830152612c568186611f50565b90508181036060830152612c6a8185611f50565b90508181036080830152612c7e8184612964565b9050969550505050505056fea26469706673582212201b28130437e3470eda12a7da29420118e8a146cf703b12e782c733d1cc2c086a64736f6c6343000809003368747470733a2f2f7261696e626f776b69742d6d696e742d6e66742d64656d6f2e76657263656c2e6170702f6e66742e6a736f6e",
  "linkReferences": {},
  "deployedLinkReferences": {}
}